S00B00007375622E73726563CF
S113000045C0000061C000005FC000005DC000008A
S11300105BC0000059C0000057C0000055C000007C
S113002053C0000051C0000050C000004DC000008B
S11300304BC0000049C0000047C0000045C000009C
S113004043C0000041C000003FC000003DC00000AC
S11300503BC00000F4C5000037C0000035C00000FC
S113006033C0000031C000002FC000002DC00000CC
S11300702BC0000029C0000027C0000025C00000DC
S113008023C0000021C000001FC0000011241FBEB7
S1130090CFEFD0E1DEBFCDBF13E0A0E0B1E0E8E0F8
S11300A0F8E100E00BBF02C007900D92AA37B10738
S11300B0D9F723E0AAE7B3E001C01D92A639B2073D
S11300C0E1F7BDD40C94020C9BCF1F920F920FB694
S11300D00F9211240BB60F922F933F938F939F93FC
S11300E0EF93FF9383E884BD80EF88BB80917D0309
S11300F08823A9F0E0917A03F0E0E558FC4F808171
S11301008295807F88BB30917A0328B384E090E0A5
S113011002C0880F991F3A95E2F7822B88BB909111
S11301207A0381E0892780937A03FF91EF919F916D
S11301308F913F912F910F900BBE0F900FBE0F9098
S11301401F90189584E085BD83E884BD87B78064DB
S113015087BF089510927D0318BA08958FEF87BB67
S113016080EF88BBEBE7F3E08083818310927A030E
S113017010927D03E7CF0895282F10927E0391B14A
S11301809095987F29F181EE94E00197F1F700C0F2
S1130190000091B19095892F887FD1F0883071F05B
S11301A0803171F0803271F0803471F0803869F4FC
S11301B085E30BC091E090937E03089581E305C02D
S11301C082E303C083E301C084E32813F3CF0895DB
S11301D080E0089582B1877082B908958FE084BB6E
S11301E015BAA99AAA9A9F99FECFAA988FEF84BBB1
S11301F00895CF93C82FF2DF15BA85B39C2F907F53
S1130200892B85BBAA9AAA9885B38F7085BB25B321
S113021030E1C39FC0011124822B85BBAA9AAA98FE
S113022083EF91E00197F1F700C00000CF910895AA
S1130230CF93C82FD3DF15BAA89A85B39C2F907F8C
S1130240892B85BBAA9AAA9885B38F7085BB25B3E1
S113025030E1C39FC0011124822B85BBAA9AAA98BE
S113026080E18A95F1F700C0CF910895CF93DF9391
S1130270EC018881882329F02196DADF89918111A4
S1130280FCCFDF91CF9108956295660F660F607C75
S11302908068862BAECF08958FEF84BB80E2A9DF00
S11302A083EC99E00197F1F700C0000080E2A1DF40
S11302B083EC99E00197F1F700C0000080E299DF38
S11302C083EC99E00197F1F700C0000088E291DF28
S11302D088E08FDF81E08DDF86E08BDF83EC99E0BF
S11302E00197F1F700C000008CE083CF089580955A
S11302F09095DA9A2BB32F7C2BBB20E130E0992325
S113030014F4D89A01C0D898D99A880F991FD9980B
S113031021503109A1F78BB380638BBB8BB38F7CE6
S11303208BBB0895DA9A8BB38F7C8BBB80E190E012
S1130330D89AD99AD9980197D9F78BB380638BBB94
S11303408BB38F7C8BBB08958FEF8ABB1BBAEACF2C
S1130350089540DF03DFB1D49FDF87E690E062D4E5
S1130360F3CF0895F7DE1092810310928003109268
S11303707F031092890310928803109283031092D2
S1130380820310928703109286030895E3DECADF86
S113039060E080E079DF8AE291E068DF61E080E09C
S11303A073DF8BE391E062CF08950F931F93CF9394
S11303B0DF938CE491E05ADF61E080E065DF8DE556
S11303C091E054DFCAE0D1E00AE211E08991999109
S11303D08EDF2FE58AEE90E0215080409040E1F7D7
S11303E000C00000C017D10789F7D0DFDF91CF919B
S11303F01F910F910895AF92BF92CF92DF92EF9227
S1130400FF920F931F93CF93DF93182F2FE946E8A2
S113041051E0215040405040E1F700C0000081E02D
S113042090E09093800380937F03C0917F03D091E9
S11304308003109283031092820310928703109218
S1130440860360E080E020DF8EE691E00FDF61E06C
S113045080E01ADF8FE791E009DFAA24A394B12C8E
S113046002E00F2EFCE2CF2EF2E0DF2EF02D812FE2
S113047083DE182F80917E03882309F467C1123329
S113048091F018F4113339F061C1133391F015333D
S113049009F453C15BC12196C131D10509F056C19C
S11304A0C1E0D0E053C1219709F050C1C0E1D0E0D0
S11304B04DC1809184038130A9F4D0938003C0930B
S11304C07F03B0928903A0928803C0918803D091DE
S11304D0890360E080E0D8DE8EE891E0C7DE009317
S11304E0840334C180918403823009F02FC1D093F6
S11304F08903C093880360E080E0C6DE80917F03B7
S1130500909180039F938F938FE991E09F938F93B2
S113051049D561E080E0B8DE809188039091890339
S11305209F938F9382EB91E09F938F933BD5A09100
S11305307F03B0918003E0918803F0918903AA0FAF
S1130540BB1FA85FBE4FEE0FFF1FE85FFE4F2D914C
S11305503C9180819181822B932BC9DE8FE996E8AF
S113056021E0815090402040E1F700C0000020913C
S11305707F033091800380918803909189034DB764
S11305805EB7485F5F4F0FB6F8945EBF0FBE4DBFB6
S11305902817390709F560E080E076DE85EC91E004
S11305A065DE61E080E070DE86ED91E05FDE5FE9AC
S11305B086E891E0515080409040E1F700C000008F
S11305C01092800310927F03109289031092880383
S11305D0DDDE10928403CFC080918803909189035B
S11305E020917F0330918003821B930B90938303AC
S11305F0809382038091820390918303992324F54D
S113060080918203909183039195819591099093B0
S113061083038093820380918203909183030897DC
S113062024F481E08093850327C0109285032091F0
S113063082033091830380E190E0821B930B9093BB
S113064083038093820318C0809182039091830373
S1130650099784F081E0809385032091820330918F
S1130660830380E190E0821B930B90938303809338
S1130670820302C01092850360E080E005DE809171
S11306808203909183039F938F9387EE91E09F93CE
S11306908F9388D480918103409182035091830386
S11306A080FBEE24E0F8F12CF701EE0FFF1FEA5F68
S11306B0FE4F20813181429FC001439F900D529F84
S11306C0900D1124909387038093860361E080E06A
S11306D0DBDD80918603909187039F938F9389EF4D
S11306E091E09F938F935ED42FE34DE053E021502C
S11306F040405040E1F700C0000060E080E0C4DD0D
S11307008AE092E0B3DD61E080E0BEDD80918603A3
S1130710909187039F938F938BE192E09F938F93A4
S113072041D483E0809384038DB79EB70C960FB6B3
S1130730F8949EBF0FBE8DBF1EC099E088E10FB62E
S1130740F894A89581BD0FBE91BDFFCFFE01EE0FB9
S1130750FF1FE85FFE4F80819181C9DD61E08EE07B
S113076093DDDF93CF93DF92CF921CD40F900F9041
S11307700F900F907CCEDF91CF911F910F91FF903E
S1130780EF90DF90CF90BF90AF9008952F923F925B
S11307904F925F926F927F928F929F92AF92BF928D
S11307A0CF92DF92EF92FF920F931F93CF93DF9339
S11307B0CDB7DEB76E970FB6F894DEBF0FBECDBFD0
S11307C0C0907F03D090800321E0C21AD10860E07A
S11307D080E05ADD81E392E049DD81E080937D038E
S11307E0809182039091830399230CF4F1C0E12C4E
S11307F0F12C0F2EFBE78F2EF3E09F2EF02D0F2E02
S1130800FAE86F2EF2E07F2EF02D8E010F5F1F4F5E
S11308100F2EFFE94F2EF2E05F2EF02D0F2EF4EB9A
S11308202F2EF2E03F2EF02DF601EE0FFF1FE65FB4
S1130830FE4F808191815BDD8091820390918303DF
S1130840E816F9065CF561E080E01EDD8091850321
S1130850811112C080918203909183038E199F09A4
S11308609F938F9382E492E09F938F939BD30F90F7
S11308700F900F900F901EC080918203909183037C
S11308808E199F099F938F9385E592E09F938F9391
S113089089D30F900F900F900F900CC060E080E010
S11308A0F3DC88E692E0E2DC61E080E0EDDC89E7FD
S11308B092E0DCDCF401E082809182039091830376
S11308C08E1981838CE098D1809182039091830367
S11308D08E199F099F938F937F926F921F930F930B
S11308E074D3C80191D1FF92EF925F924F921F93FC
S11308F00F936BD3C80188D180917F0390918003BB
S11309009F938F933F922F921F930F935ED3C801AF
S11309107BD180918803909189039F938F938BEC73
S113092092E09F938F931F930F934FD3C8016CD181
S11309305601FFEFAF1ABF0ABF92AF9282EE92E068
S11309409F938F931F930F9340D3C8015DD18091E0
S11309508603909187039F938F9389EF92E09F93EF
S11309608F931F930F9331D30FB6F894DEBF0FBE4E
S1130970CDBFC80149D180918503811106C09FE094
S1130980C916D1044CF465010FC0C114D10439F067
S1130990E1E0CE1AD10808C0C12CD12C05C00F2E1D
S11309A0FFE0CF2ED12CF02DFFE32DE083E0F150BA
S11309B020408040E1F700C000009FEFE91AF90AE7
S11309C080918203909183038E159F050CF02CCFA8
S11309D0EFE3FDE023E0E150F0402040E1F700C008
S11309E00000109281031092800310927F031092F2
S11309F08903109288031092830310928203109249
S1130A00870310928603C2DC109284036E960FB69D
S1130A10F894DEBF0FBECDBFDF91CF911F910F9130
S1130A20FF90EF90DF90CF90BF90AF909F908F900A
S1130A307F906F905F904F903F902F90089589DC46
S1130A4091DC789460E070E088E191E061D2ADDC03
S1130A501092840330D1CFEF0F2EF5E6CF2EF3E0C2
S1130A60DF2EF02DD4E00F2EF3E4EF2EF3E0FF2E73
S1130A70F02D0CE413E08C2F7FDBC82F80917E03D4
S1130A80882309F491C0C33331F118F4C13340F41D
S1130A908BC0C43309F479C0C53309F47CC084C065
S1130AA080918403811180C081E080938403A1DB61
S1130AB060E080E0E9DBC13321F480E193E0D6DB40
S1130AC005C0C23319F481E293E0D0DBC093810303
S1130AD08C2F91DC69C080918403833009F064C059
S1130AE020918A0330918B03809186039091870330
S1130AF0281739070CF458C020918A0330918B03CE
S1130B00809186039091870382179307E4F460E051
S1130B1080E0BADB82E393E0A9DB61E080E0B4DB50
S1130B2080918A0390918B032091860330918703EF
S1130B30821B930B9F938F93FF92EF9233D20F906C
S1130B400F900F900F902FE38DE093E021508040A1
S1130B509040E1F700C0000060E080E095DB84E5B0
S1130B6093E084DB61E080E08FDB809182039091ED
S1130B7083039F938F93DF92CF9214D2D0938403F5
S1130B800F900F900F900F900FC0809184038430CA
S1130B9059F4FCDD09C099E088E10FB6F894A895F2
S1130BA081BD0FBE91BDFFCF80918403833009F0D6
S1130BB062CF61E089E068DB80918A0390918B03C6
S1130BC09F938F931F930F93EDD120918A033091BC
S1130BD08B0380918603909187030F900F900F9061
S1130BE00F90281739070CF446CF61E08EE04CDBF8
S1130BF087E793E03BDB3FCFEBE9F0E0908195FFA3
S1130C00FDCF80939C000895CF93DF93EC018881FE
S1130C10882329F02196F0DF89918111FCCFDF919F
S1130C20CF91089510929B0028E020939A0026E02B
S1130C3020939D00909398008093990008951F92AB
S1130C400F920FB60F9211240BB60F922F933F936E
S1130C504F935F936F937F938F939F93AF93BF93C0
S1130C60EF93FF9364B175B180E090E0C3D024E1C9
S1130C703EEA43EA51E425D08CD024E6269FA00125
S1130C80279F500D112450938B0340938A03369A67
S1130C90FF91EF91BF91AF919F918F917F916F9150
S1130CA05F914F913F912F910F900BBE0F900FBE0C
S1130CB00F901F901895369A08958FE886B917B843
S1130CC008950CD0EBC0E3D040F0DAD030F021F43A
S1130CD05F3F19F0CCC0511115C1CFC0F0D098F3CB
S1130CE09923C9F35523B1F3951B550BBB27AA27A9
S1130CF062177307840738F09F5F5F4F220F331F1B
S1130D00441FAA1FA9F333D00E2E3AF0E0E830D0E6
S1130D1091505040E695001CCAF729D0FE2F27D0E9
S1130D20660F771F881FBB1F261737074807AB07B7
S1130D30B0E809F0BB0B802DBF01FF2793585F4F2C
S1130D402AF09E3F510568F092C0DCC05F3FECF38F
S1130D50983EDCF3869577956795B795F7959F5FF1
S1130D60C9F7880F911D9695879597F90895E1E045
S1130D70660F771F881FBB1F621773078407BA07A4
S1130D8020F0621B730B840BBA0BEE1F88F7E095FF
S1130D90089504D06894B111B5C0089598D088F02E
S1130DA09F5790F0B92F9927B751A0F0D1F0660F53
S1130DB0771F881F991F1AF0BA95C9F712C0B1306E
S1130DC081F09FD0B1E008959CC0672F782F8827C9
S1130DD0B85F39F0B93FCCF3869577956795B395AD
S1130DE0D9F73EF490958095709561957F4F8F4F1C
S1130DF09F4F0895E89409C097FB3EF49095809521
S1130E00709561957F4F8F4F9F4F9923A9F0F92FCC
S1130E1096E9BB279395F695879577956795B7954A
S1130E20F111F8CFFAF4BB0F11F460FF1BC06F5F30
S1130E307F4F8F4F9F4F16C0882311F096E911C042
S1130E40772321F09EE8872F762F05C0662371F063
S1130E5096E8862F70E060E02AF09A95660F771F77
S1130E60881FDAF7880F9695879597F9089597F96B
S1130E709F6780E870E060E008959FEF80EC08953C
S1130E8000240A9416161706180609060895002465
S1130E900A9412161306140605060895092E0394DF
S1130EA0000C11F4882352F0BB0F40F4BF2B11F453
S1130EB060FF04C06F5F7F4F8F4F9F4F089557FDB2
S1130EC09058440F551F59F05F3F71F04795880FB4
S1130ED097FB991F61F09F3F79F08795089512164B
S1130EE013061406551FF2CF4695F1DF08C01616F7
S1130EF017061806991FF1CF8695710561050894A8
S1130F000895E894BB2766277727CB0197F90895BE
S1130F100F931F93CF93DF93009731F461157105FD
S1130F2019F480E090E039C08B01EC016EE070E0D0
S1130F3081E090E075D2FC01892B99F380E88383EA
S1130F400115110571F01387028781E8838380916D
S1130F508C0390918D03892B21F4F0938D03E093FE
S1130F608C032097C9F0D187C087838182608383F3
S1130F7080918E0390918F03892B71F4F0938F03EA
S1130F80E0938E038091900390919103892B21F437
S1130F90F0939103E0939003CF01DF91CF911F91E0
S1130FA00F910895CF93DF93CDB7DEB7AE014B5FBA
S1130FB05F4FFA0161917191AF0180918E0390911D
S1130FC08F0331D0DF91CF9108950F931F93CF9367
S1130FD0DF93CDB7DEB72E970FB6F894DEBF0FBE02
S1130FE0CDBF0D891E8986E08C831A8309838FEF18
S1130FF09FE79E838D83AE01475E5F4F6F89788D37
S1131000CE01019610D0EF81F885E00FF11F108218
S11310102E960FB6F894DEBF0FBECDBFDF91CF91F1
S11310201F910F9108952F923F924F925F926F926A
S11310307F928F929F92AF92BF92CF92DF92EF9264
S1131040FF920F931F93CF93DF93CDB7DEB72B9708
S11310500FB6F894DEBF0FBECDBF6C017B018A01D1
S1131060FC0117821682838181FFBFC1CE010196E4
S11310703C01F6019381F70193FD859193FF8191E2
S11310807F01882309F4ADC1853239F493FD85913C
S113109093FF81917F01853221F4B60190E018D34A
S11310A0E8CF912C212C312CFFE1F315D8F08B32B1
S11310B079F038F4803279F08332A1F4232D206161
S11310C01DC08D3261F0803369F4232D216016C078
S11310D0832D8260382EE32DE4603E2E2AC0F32D4A
S11310E0F8601DC037FC2DC020ED280F2A3040F0D9
S11310F08E32B9F436FC75C1232D2064322E19C00A
S113110036FE06C08AE0989E200D1124922E11C04E
S1131110EAE02E9E200D1124222EF32DF0623F2EA4
S113112008C08C3621F4832D8068382E02C088369E
S113113041F4F70193FD859193FF81917F01811122
S1131140B3CF982F9F7D9554933028F40C5F1F4F95
S11311509FE399830DC0833631F0833771F0833573
S113116009F055C020C0F801808189830E5F1F4FAC
S113117088248394912C530112C02801F2E04F0E6D
S1131180511CF801A080B18036FE03C0692D70E0C7
S113119002C06FEF7FEFC50190D24C018201F32DA5
S11311A0FF773F2E15C0280122E0420E511CF801A2
S11311B0A080B18036FE03C0692D70E002C06FEFDD
S11311C07FEFC50168D24C01F32DF0683F2E8201F8
S11311D033FC19C0822D90E088169906A0F4B6015C
S11311E080E290E075D22A94F5CFF50137FC859121
S11311F037FE81915F01B60190E06AD221102A94F2
S113120021E0821A91088114910479F7E1C08436AF
S113121011F0893639F5F80137FE07C06081718114
S1131220828193810C5F1F4F08C060817181072EFA
S1131230000C880B990B0E5F1F4FF32DFF763F2E8A
S113124097FF09C090958095709561957F4F8F4F5A
S11312509F4FF0683F2E2AE030E0A30175D2882E1C
S1131260861844C0853731F4232D2F7EB22E2AE010
S113127030E025C0932D997FB92E8F36C1F018F434
S1131280883579F0AEC0803719F0883721F0A9C0CD
S1131290E92FE061BE2EB4FE0DC0FB2DF460BF2E1D
S11312A009C034FE0AC0292F2660B22E06C028E0E9
S11312B030E005C020E130E002C020E132E0F80176
S11312C0B7FE07C060817181828193810C5F1F4FDB
S11312D006C06081718180E090E00E5F1F4FA30122
S11312E033D2882E8618FB2DFF773F2E36FE0DC095
S11312F0232D2E7FA22E891458F434FE0BC032FC09
S113130009C0832D8E7EA82E05C0B82CA32C03C043
S1131310B82C01C0B92CA4FE0FC0FE01E80DF11DCC
S11313208081803321F49A2D997EA92E09C0A2FED2
S113133006C0B394B39404C08A2D867809F0B3949C
S1131340A3FC10C0A0FE06C0B21480F4280C922C9A
S11313509B180DC0B21458F4B60180E290E0B8D1E5
S1131360B394F8CFB21418F42B1802C0982C212C83
S1131370A4FE0FC0B60180E390E0AAD1A2FE16C07D
S1131380A1FC03C088E790E002C088E590E0B601C4
S11313900CC08A2D867851F0A1FE02C08BE201C0F8
S11313A080E2A7FC8DE2B60190E092D1891430F47A
S11313B0B60180E390E08CD19A94F8CF8A94F3013B
S11313C0E80DF11D8081B60190E082D18110F6CF45
S11313D0222009F44ECEB60180E290E079D12A941D
S11313E0F7CFF6018681978102C08FEF9FEF2B968E
S11313F00FB6F894DEBF0FBECDBFDF91CF911F9122
S11314000F91FF90EF90DF90CF90BF90AF909F909F
S11314108F907F906F905F904F903F902F900895A2
S11314200F931F93CF93DF93869F8001879F100DA7
S1131430969F100D1124C8010DD0EC01009721F0E6
S1131440A80160E070E032D1CE01DF91CF911F910D
S11314500F9108950F931F93CF93DF9382309105DB
S113146010F482E090E0E0919403F091950320E081
S113147030E0A0E0B0E0309719F140815181028161
S1131480138148175907C8F08417950769F4109712
S113149031F012960C93129713961C9327C0009365
S11314A094031093950322C02115310519F04217B6
S11314B0530718F49A01BD01EF01DF01F801DBCFF6
S11314C021153105F9F0281B390B2430310580F43E
S11314D08A819B816115710521F0FB0193838283CD
S11314E004C09093950380939403FE01329644C004
S11314F0FE01E20FF31F8193919322503109398346
S113150028833AC02091920330919303232B41F412
S113151020910201309103013093930320939203AD
S113152020910001309101012115310541F42DB7BD
S11315303EB74091040150910501241B350BE09105
S11315409203F0919303E217F307A0F42E1B3F0BD1
S11315502817390778F0AC014E5F5F4F2417350721
S113156048F04E0F5F1F509393034093920381936F
S1131570919302C0E0E0F0E0CF01DF91CF911F91A1
S11315800F910895CF93DF93009709F481C0FC0174
S1131590329713821282A0919403B091950310970D
S11315A081F420813181820F931F20919203309125
S11315B093032817390751F5F0939303E0939203AB
S11315C067C0ED0120E030E0CE17DF0740F44A8128
S11315D05B819E0141155105F1F0EA01F5CFD383FA
S11315E0C28340815181840F951FC817D90759F4CC
S11315F088819981840F951F0296918380838A81C3
S11316009B81938382832115310529F4F0939503FB
S1131610E09394033DC0E901FB83EA834991599126
S1131620C40FD51FEC17FD0761F480819181840FED
S1131630951F0296E90199838883828193819B8314
S11316408A83E0E0F0E012968D919C9113970097C5
S113165019F0FD01DC01F7CF8D919C9111979D014B
S11316602E5F3F4F820F931F20919203309193037B
S11316702817390769F4309729F4109295031092CA
S1131680940302C013821282B0939303A093920333
S1131690DF91CF910895FC010590615070400110D5
S11316A0D8F7809590958E0F9F1F0895DC0101C097
S11316B06D9341505040E0F70895FC016150704033
S11316C001900110D8F7809590958E0F9F1F089573
S11316D00F931F93CF93DF93FB01238121FD03C05D
S11316E08FEF9FEF2CC022FF16C0468157812481C3
S11316F035814217530744F4A081B1819D012F5FC6
S11317003F4F318320838C93268137812F5F3F4F56
S11317103783268314C08B01EC01FB010084F1851F
S1131720E02D0995892BE1F6D80116968D919C91AF
S11317301797019617969C938E931697CE01DF9177
S1131740CF911F910F910895FA01AA27283051F1E2
S1131750203181F1E8946F936E7F6E5F7F4F8F4FDE
S11317609F4FAF4FB1E03ED0B4E03CD0670F781F3D
S1131770891F9A1FA11D680F791F8A1F911DA11D22
S11317806A0F711D811D911DA11D20D009F468945B
S11317903F912AE0269F11243019305D3193DEF603
S11317A0CF010895462F4770405D4193B3E00FD0B9
S11317B0C9F7F6CF462F4F70405D4A3318F0495DA4
S11317C031FD4052419302D0A9F7EACFB4E0A69587
S11317D09795879577956795BA95C9F700976105A9
S11317E0710508959B01AC010A2E069457954795FF
S11317F037952795BA95C9F7620F731F841F951FF4
S10B1800A01D0895F894FFCF28
S11318080000960320002C01F401010002000400EA
S11318180800800000080080004000044000200008
S1131828000200200010000110002053656C65635D
S11318387420427574746F6E21200053313A4164E8
S1131848756C74202053323A4B6964002020205769
S1131858656C636F6D6520546F2020200047616EAE
S1131868676E616D2053746174696F6E2100205333
S1131878746172742053746174696F6E202000530C
S1131888746174696F6E204E756D203A200020458E
S11318986E6420202053746174696F6E2020005395
S11318A8746172743A253032642053746174696FB8
S11318B86E00456E6420203A2530326420537461EA
S11318C874696F6E00202020204572726F72212186
S11318D820202020200052657475726E20546F20D9
S11318E84669727374210044697374616E63653A5E
S11318F8256420202020202000466565203A2025E4
S113190830346420576F6E202000496E73657274FA
S1131918204D6F6E657921212020004665653A25A2
S11319283034642D303030302020200025303264AB
S113193800547261696E20497320476F696E672E7F
S11319482E002D2D2D2D3E203A202564204D696E24
S113195875746573003C2D2D2D2D203A20256420A7
S11319684D696E7574657300547261696E204973AC
S1131978204172726976656400205468616E6B73E5
S11319882041204C6F742120200054696D652F6D0F
S113199820202020202020203A2025640D0A0044FD
S11319A8697374616E63652020202020203A202505
S11319B8640D0A0053746172742053746174696FFE
S11319C86E203A20253032640D0A00456E64205397
S11319D8746174696F6E2020203A20253032640DBA
S11319E80A004E6F772053746174696F6E2020204B
S11319F83A20253032640D0A004D6F6E6579202037
S1131A08202020202020203A20253034640D0A008C
S1131A18596F752053656C656374204164756C74E3
S1131A2800596F752053656C656374204B69642095
S1131A38200048657265204973204368616E6765B4
S1131A482E20004368616E6765203A20253034648F
S1131A582020200020205B53345D20476F21212063
S1131A682020202000202044697374616E6365205F
S10D1A783A2025642020004F4B00A3
S9030000FC
